{
    "contractName": "CallerContract",
    "abi": [
        {
            "anonymous": false,
            "inputs": [
                {
                    "indexed": true,
                    "internalType": "address",
                    "name": "previousOwner",
                    "type": "address"
                },
                {
                    "indexed": true,
                    "internalType": "address",
                    "name": "newOwner",
                    "type": "address"
                }
            ],
            "name": "OwnershipTransferred",
            "type": "event"
        },
        {
            "anonymous": false,
            "inputs": [
                {
                    "indexed": false,
                    "internalType": "uint256",
                    "name": "id",
                    "type": "uint256"
                }
            ],
            "name": "ReceivedNewRequestIdEvent",
            "type": "event"
        },
        {
            "anonymous": false,
            "inputs": [
                {
                    "indexed": false,
                    "internalType": "address",
                    "name": "oracleAddress",
                    "type": "address"
                }
            ],
            "name": "newOracleAddressEvent",
            "type": "event"
        },
        {
            "inputs": [],
            "name": "owner",
            "outputs": [
                {
                    "internalType": "address",
                    "name": "",
                    "type": "address"
                }
            ],
            "stateMutability": "view",
            "type": "function"
        },
        {
            "inputs": [],
            "name": "renounceOwnership",
            "outputs": [],
            "stateMutability": "nonpayable",
            "type": "function"
        },
        {
            "inputs": [
                {
                    "internalType": "address",
                    "name": "_oracleInstanceAddress",
                    "type": "address"
                }
            ],
            "name": "setOracleInstanceAddress",
            "outputs": [],
            "stateMutability": "nonpayable",
            "type": "function"
        },
        {
            "inputs": [
                {
                    "internalType": "address",
                    "name": "newOwner",
                    "type": "address"
                }
            ],
            "name": "transferOwnership",
            "outputs": [],
            "stateMutability": "nonpayable",
            "type": "function"
        },
        {
            "inputs": [],
            "name": "updateEthPrice",
            "outputs": [],
            "stateMutability": "nonpayable",
            "type": "function"
        }
    ],
    "bytecode": "608060405234801561001057600080fd5b50600061001b61006a565b600080546001600160a01b0319166001600160a01b0383169081178255604051929350917f8be0079c531659141344cd1fd0a4f28419497f9722a3daafe3b4186f6b6457e0908290a35061006e565b3390565b6104bb8061007d6000396000f3fe608060405234801561001057600080fd5b50600436106100575760003560e01c806323c7e4a21461005c578063715018a6146100665780638da5cb5b1461006e578063e9e17a9e14610092578063f2fde38b146100b8575b600080fd5b6100646100de565b005b6100646101a3565b610076610261565b604080516001600160a01b039092168252519081900360200190f35b610064600480360360208110156100a857600080fd5b50356001600160a01b0316610270565b610064600480360360208110156100ce57600080fd5b50356001600160a01b0316610347565b60015460408051630c302e7b60e21b815290516000926001600160a01b0316916330c0b9ec91600480830192602092919082900301818787803b15801561012457600080fd5b505af1158015610138573d6000803e3d6000fd5b505050506040513d602081101561014e57600080fd5b5051600081815260036020908152604091829020805460ff19166001179055815183815291519293507f3ed150819af981e387450beb90ec379b8b322150dbb299d492b108c59a623e4b92918290030190a150565b6101ab61045b565b6001600160a01b03166101bc610261565b6001600160a01b031614610217576040805162461bcd60e51b815260206004820181905260248201527f4f776e61626c653a2063616c6c6572206973206e6f7420746865206f776e6572604482015290519081900360640190fd5b600080546040516001600160a01b03909116907f8be0079c531659141344cd1fd0a4f28419497f9722a3daafe3b4186f6b6457e0908390a3600080546001600160a01b0319169055565b6000546001600160a01b031690565b61027861045b565b6001600160a01b0316610289610261565b6001600160a01b0316146102e4576040805162461bcd60e51b815260206004820181905260248201527f4f776e61626c653a2063616c6c6572206973206e6f7420746865206f776e6572604482015290519081900360640190fd5b600280546001600160a01b038084166001600160a01b03199283161792839055600180549092169216918217905560408051918252517f441e3b056b114797955165bd03bb8393fc1658a713f09225de4745a8d068bf7d9181900360200190a150565b61034f61045b565b6001600160a01b0316610360610261565b6001600160a01b0316146103bb576040805162461bcd60e51b815260206004820181905260248201527f4f776e61626c653a2063616c6c6572206973206e6f7420746865206f776e6572604482015290519081900360640190fd5b6001600160a01b0381166104005760405162461bcd60e51b81526004018080602001828103825260268152602001806104606026913960400191505060405180910390fd5b600080546040516001600160a01b03808516939216917f8be0079c531659141344cd1fd0a4f28419497f9722a3daafe3b4186f6b6457e091a3600080546001600160a01b0319166001600160a01b0392909216919091179055565b339056fe4f776e61626c653a206e6577206f776e657220697320746865207a65726f2061646472657373a264697066735822122002c8f6380a23f5364bd58568a58074fc4d2e35eedabb469e171aad747328c5eb64736f6c63430007040033",
    "sourcePath": "/Users/nomi/Documents/MyAdventures/blockchain/oracle/caller/CallerContract.sol",
    "compiler": {
        "name": "solc",
        "version": "0.7.4+commit.3f05b770"
    },
    "functionHashes": {
        "owner()": "8da5cb5b",
        "renounceOwnership()": "715018a6",
        "setOracleInstanceAddress(address)": "e9e17a9e",
        "transferOwnership(address)": "f2fde38b",
        "updateEthPrice()": "23c7e4a2"
    },
    "gasEstimates": {
        "creation": {
            "codeDepositCost": "242200",
            "executionCost": "22716",
            "totalCost": "264916"
        },
        "external": {
            "owner()": "1059",
            "renounceOwnership()": "24255",
            "setOracleInstanceAddress(address)": "43939",
            "transferOwnership(address)": "infinite",
            "updateEthPrice()": "infinite"
        }
    }
}