{
    "contractName": "CallerContract",
    "abi": [
        {
            "anonymous": false,
            "inputs": [
                {
                    "indexed": true,
                    "internalType": "address",
                    "name": "previousOwner",
                    "type": "address"
                },
                {
                    "indexed": true,
                    "internalType": "address",
                    "name": "newOwner",
                    "type": "address"
                }
            ],
            "name": "OwnershipTransferred",
            "type": "event"
        },
        {
            "anonymous": false,
            "inputs": [
                {
                    "indexed": false,
                    "internalType": "uint256",
                    "name": "ethPrice",
                    "type": "uint256"
                },
                {
                    "indexed": false,
                    "internalType": "uint256",
                    "name": "id",
                    "type": "uint256"
                }
            ],
            "name": "PriceUpdatedEvent",
            "type": "event"
        },
        {
            "anonymous": false,
            "inputs": [
                {
                    "indexed": false,
                    "internalType": "uint256",
                    "name": "id",
                    "type": "uint256"
                }
            ],
            "name": "ReceivedNewRequestIdEvent",
            "type": "event"
        },
        {
            "anonymous": false,
            "inputs": [
                {
                    "indexed": false,
                    "internalType": "address",
                    "name": "oracleAddress",
                    "type": "address"
                }
            ],
            "name": "newOracleAddressEvent",
            "type": "event"
        },
        {
            "inputs": [
                {
                    "internalType": "uint256",
                    "name": "_ethPrice",
                    "type": "uint256"
                },
                {
                    "internalType": "uint256",
                    "name": "_id",
                    "type": "uint256"
                }
            ],
            "name": "callback",
            "outputs": [],
            "stateMutability": "nonpayable",
            "type": "function"
        },
        {
            "inputs": [],
            "name": "owner",
            "outputs": [
                {
                    "internalType": "address",
                    "name": "",
                    "type": "address"
                }
            ],
            "stateMutability": "view",
            "type": "function"
        },
        {
            "inputs": [],
            "name": "renounceOwnership",
            "outputs": [],
            "stateMutability": "nonpayable",
            "type": "function"
        },
        {
            "inputs": [
                {
                    "internalType": "address",
                    "name": "_oracleInstanceAddress",
                    "type": "address"
                }
            ],
            "name": "setOracleInstanceAddress",
            "outputs": [],
            "stateMutability": "nonpayable",
            "type": "function"
        },
        {
            "inputs": [
                {
                    "internalType": "address",
                    "name": "newOwner",
                    "type": "address"
                }
            ],
            "name": "transferOwnership",
            "outputs": [],
            "stateMutability": "nonpayable",
            "type": "function"
        },
        {
            "inputs": [],
            "name": "updateEthPrice",
            "outputs": [],
            "stateMutability": "nonpayable",
            "type": "function"
        }
    ],
    "bytecode": "608060405234801561001057600080fd5b50600061001b61006a565b600080546001600160a01b0319166001600160a01b0383169081178255604051929350917f8be0079c531659141344cd1fd0a4f28419497f9722a3daafe3b4186f6b6457e0908290a35061006e565b3390565b61062e8061007d6000396000f3fe608060405234801561001057600080fd5b50600436106100625760003560e01c806323c7e4a214610067578063715018a6146100715780638da5cb5b14610079578063b5d73ba41461009d578063e9e17a9e146100c0578063f2fde38b146100e6575b600080fd5b61006f61010c565b005b61006f6101d1565b61008161028f565b604080516001600160a01b039092168252519081900360200190f35b61006f600480360360408110156100b357600080fd5b508035906020013561029e565b61006f600480360360208110156100d657600080fd5b50356001600160a01b031661038f565b61006f600480360360208110156100fc57600080fd5b50356001600160a01b0316610466565b60025460408051630c302e7b60e21b815290516000926001600160a01b0316916330c0b9ec91600480830192602092919082900301818787803b15801561015257600080fd5b505af1158015610166573d6000803e3d6000fd5b505050506040513d602081101561017c57600080fd5b5051600081815260046020908152604091829020805460ff19166001179055815183815291519293507f3ed150819af981e387450beb90ec379b8b322150dbb299d492b108c59a623e4b92918290030190a150565b6101d961057a565b6001600160a01b03166101ea61028f565b6001600160a01b031614610245576040805162461bcd60e51b815260206004820181905260248201527f4f776e61626c653a2063616c6c6572206973206e6f7420746865206f776e6572604482015290519081900360640190fd5b600080546040516001600160a01b03909116907f8be0079c531659141344cd1fd0a4f28419497f9722a3daafe3b4186f6b6457e0908390a3600080546001600160a01b0319169055565b6000546001600160a01b031690565b6003546001600160a01b031633146102e75760405162461bcd60e51b815260040180806020018281038252602d8152602001806105a5602d913960400191505060405180910390fd5b60008181526004602052604090205460ff166103345760405162461bcd60e51b81526004018080602001828103825260278152602001806105d26027913960400191505060405180910390fd5b6001829055600081815260046020908152604091829020805460ff19169055815184815290810183905281517f6b69e4f2aedf7e65a79ecaf16e8869b2b99c87e341f2c51286bfd4a7fc3b9969929181900390910190a15050565b61039761057a565b6001600160a01b03166103a861028f565b6001600160a01b031614610403576040805162461bcd60e51b815260206004820181905260248201527f4f776e61626c653a2063616c6c6572206973206e6f7420746865206f776e6572604482015290519081900360640190fd5b600380546001600160a01b038084166001600160a01b03199283161792839055600280549092169216918217905560408051918252517f441e3b056b114797955165bd03bb8393fc1658a713f09225de4745a8d068bf7d9181900360200190a150565b61046e61057a565b6001600160a01b031661047f61028f565b6001600160a01b0316146104da576040805162461bcd60e51b815260206004820181905260248201527f4f776e61626c653a2063616c6c6572206973206e6f7420746865206f776e6572604482015290519081900360640190fd5b6001600160a01b03811661051f5760405162461bcd60e51b815260040180806020018281038252602681526020018061057f6026913960400191505060405180910390fd5b600080546040516001600160a01b03808516939216917f8be0079c531659141344cd1fd0a4f28419497f9722a3daafe3b4186f6b6457e091a3600080546001600160a01b0319166001600160a01b0392909216919091179055565b339056fe4f776e61626c653a206e6577206f776e657220697320746865207a65726f2061646472657373596f7520617265206e6f7420617574686f72697a656420746f2063616c6c20746869732066756e6374696f6e2e546869732072657175657374206973206e6f7420696e206d792070656e64696e67206c6973742ea2646970667358221220ce1760cb3ef1b327cadfc314e7e295e1cc68eb93d1bec845dcb1365a39e22ccf64736f6c63430007040033",
    "sourcePath": "/Users/nomi/Documents/MyAdventures/blockchain/oracle/caller/CallerContract.sol",
    "compiler": {
        "name": "solc",
        "version": "0.7.4+commit.3f05b770"
    },
    "functionHashes": {
        "callback(uint256,uint256)": "b5d73ba4",
        "owner()": "8da5cb5b",
        "renounceOwnership()": "715018a6",
        "setOracleInstanceAddress(address)": "e9e17a9e",
        "transferOwnership(address)": "f2fde38b",
        "updateEthPrice()": "23c7e4a2"
    },
    "gasEstimates": {
        "creation": {
            "codeDepositCost": "316400",
            "executionCost": "22790",
            "totalCost": "339190"
        },
        "external": {
            "callback(uint256,uint256)": "infinite",
            "owner()": "1059",
            "renounceOwnership()": "24255",
            "setOracleInstanceAddress(address)": "43961",
            "transferOwnership(address)": "infinite",
            "updateEthPrice()": "infinite"
        }
    }
}